:0300000002167570
:0C167500787FE4F6D8FD7581070216BCF2
:10150E003F065B4F666D7D077F6F777C395E797125
:10151E00000706030201000302060500010604008F
:10152E0000000000000000000000000000000000AD
:10153E000000000303020606050000010606040073
:10154E00000000000000000000000000000000038A
:10155E000303020606060500000001060606040047
:10156E00000000000000000000000003030303025F
:10157E000606060605000000000106060606040023
:10158E00000000000000000303030303020606062A
:10159E000606050000000000010606060606040009
:1015AE0000000003030303030302060606060606F5
:1015BE0005000000000000010606060606060400EF
:1015CE00000000000000000000000000000000000D
:1015DE0000000000000000000000000001010100FA
:1015EE0000000101010000000000000000000000EA
:1015FE0000000000000000000102020201000000D5
:10160E0001020202010000000000000000000000C4
:10161E0000000000010203030302010000000102AA
:10162E0003030302010000000000000000000000A0
:10163E00010203040404030201000000010203047A
:10164E000404030201000000000000000102030474
:10165E00050505040302010000000102030405054F
:07166E000504030201000066
:0C17CC004400020000232842000000003E
:0C17D900758921758840758D96D2992283
:0417F80075981022AE
:1017B90075A43075A5FF75A60175D4CF75E10175BE
:0317C900E24022D9
:0717F10075B28375EF0422BD
:0C17E5001217F11217B91217D90217F8E9
:0617920062807F647E000E
:10179800D3EF9401EE648094804015E4FDE4FC0CE2
:1017A800ECB414FB0DEDB4DAF4EF1F70E31E80E027
:0117B800220E
:100003009001A47404F0E4A3F0A3F0A3F09001AA78
:10001300F0F580F590C29853D9BF1217E57580FFAC
:100023007590017FC8FE12179843900243902012E7
:10003300179443904012179443900443901012175F
:10004300944390081217944390801217946390017D
:1000530012179463900263902012179463904012D6
:100063001794639004639010121794901521E493EE
:10007300FF7401A807088002C333D8FC628090157F
:1000830022E493FF7401A807088002C333D8FC124B
:100093001792901520E493FF7401A807088002C308
:1000A30033D8FC6280901523E493FF7401A80708FA
:1000B3008002C333D8FC12179290151FE493FF7488
:1000C30001A807088002C333D8FCF580E490019CA3
:1000D300F090019CE0FF901518934480F590EF9009
:1000E300151F93FF7401A807088002C333D8FC428D
:1000F3008012179490019CE004F0E0C3940640D171
:1001030090019C7406F090019CE0FFD39400401C86
:10011300EF90151E93FF7401A807088002C333D81C
:10012300FC12179290019CE014F080DAE49001A095
:10013300F0E490019CF09001A0E0FD75F004A4248C
:1001430008FFE435F0FE90019CE0FCC39FEE648061
:10015300F87480984003020329EDC39403505DE0D3
:10016300FF9001A0E0FE75F01CA42425F582E43481
:1001730015F583E5822FF582E43583F583E493FD5A
:100183007401A805088002C333D8FCF590EE75F01E
:100193001CA424CDF582E43415F583E5822FF58282
:1001A300E43583F583E49390151F93FF7401A80747
:1001B300088002C333D8FCF580020319EC70609009
:1001C300019CE0FF9001A0E0FE75F01CA42425F53E
:1001D30082E43415F583E5822FF582E43583F583D4
:1001E300E493FD7401A805088002C333D8FCF5909D
:1001F300EE75F01CA424CDF582E43415F583E58275
:100203002FF582E43583F583E49390151F93FF74F0
:1002130001A807088002C333D8FCF58002031990B4
:10022300019CE0FF9001A0E0FE75F01CA424CCF536
:1002330082E43415F583E5822FF582E43583F58373
:10024300E493FDEE75F01CA424CDF582E43415F59A
:1002530083E5822FF582E43583F583E493FFB505C7
:100263004590019CE0FE9001A0E075F01CA42425BC
:10027300F582E43415F583E5822EF582E43583F5C2
:1002830083E493FE7401A806088002C333D8FCF507
:1002930090EF90151F93FF7401A807088002C333E2
:1002A300D8FCF580807090019CE0FF9001A0E0FEF7
:1002B30075F01CA42425F582E43415F583E5822F1B
:1002C300F582E43583F583E493FC7401A804088084
:1002D30002C333D8FCF590EE75F01CA424CDF5824F
:1002E300E43415F583E5822FF582E43583F583E461
:1002F3009390151F93FF7401A807088002C333D896
:10030300FCF580ED90151F93FF7401A80708800288
:10031300C333D8FC42807F147E0012179890019C4F
:10032300E004F00201399001A0E004F0E0C3940678
:100333005003020134759008E490019CF090019CF5
:10034300E0FFC394065022EF90151F93FF7401A89A
:1003530007088002C333D8FCF5807F147E00121790
:100363009890019CE004F080D4901524E493FF74EA
:1003730001A807088002C333D8FCF58090019C7460
:1003830002F090019CE0FFD39400401C7401A80785
:10039300088002C333D8FCF5907F147E00121798AF
:1003A30090019CE014F080DA75900190019C740632
:1003B300F090019CE0FFC394014022EF90151E933F
:1003C300FF7401A807088002C333D8FCF5807F14AB
:1003D3007E0012179890019CE014F080D490151FB2
:1003E300E493FF7401A807088002C333D8FCF580A7
:1003F30090019C7405F090019CE0FFD39403401C92
:100403007401A807088002C333D8FCF5907F147EDB
:100413000012179890019CE014F080DAE49001A395
:10042300F09001A2F0900197F09001A9F0A3E07081
:10043300030204B8900192A3A3E0FEA3E0FF121706
:100443003FE49001A0F09001A4E0FF9001A0E0C37D
:100453009F50621217017C007D0A1213569001A16E
:10046300EDF0E490019CF09001A0E0FF90019CE08E
:10047300FEC39F501D74982EF582E43401F583E08A
:10048300FE9001A1E0FDEE6D600890019CE004F098
:1004930080D590019CE0B507BA9001A1E0FF9001DF
:1004A300A0E02498F582E43401F583EFF09001A0F5
:1004B300E004F08091E490019DF0900197E0C394F3
:1004C30041400DE4F09001A9E004F0E49001A2F0B2
:1004D300900197E004F0E490019CF09001A4E024E3
:1004E30002FFE433FE90019CE0FDC39FEE6480F8BD
:1004F3007480985027900197E075F006A42400F5C6
:1005030082E5F03400F583E5822DF582E43583F549
:1005130083740AF090019CE004F080BFE490019F93
:10052300F090019DE004F09001A4E0FF90019DE0B4
:10053300D39F5003020BD4E4FF90019CF09001A4DD
:10054300E0FE90019CE0C39E5039E0FD900197E0EE
:1005530075F006A42400F582E5F03400F583E58206
:100563002DF582E43583F583E0FC74982DF582E460
:100573003401F583E0FDECB505010F90019CE00427
:10058300F080BA900197E075F006A42401F582E5A6
:10059300F03400F583E5822EF582E43583F583EFAD
:1005A300F0E4FE9001A0F09001A4E0FD9001A0E032
:1005B300C39D5057E490019CF09001A4E0FD90018D
:1005C3009CE0FCC39D503C900197E075F006A42489
:1005D30000F582E5F03400F583E5822CF582E435FD
:1005E30083F583E0FD9001A0E02498F582E43401D3
:1005F300F583E0FCEDB504030E800890019CE00454
:10060300F080B69001A0E004F0809C9001A4E0FD8E
:10061300900197E075F006A42400F582E5F034001C
:10062300F583E5822DF582E43583F583EEF0EF6DF6
:100633006003020BCB900000A3E09001A7F075903C
:1006430001E490019CF090019CE0FFC394065022CA
:10065300EF90151F93FF7401A807088002C333D8D6
:10066300FCF5807F147E0012179890019CE004F043
:1006730080D4901524E493FF7401A807088002C373
:1006830033D8FCF58090019C7401F090019CE0FF4D
:10069300C39403501C7401A807088002C333D8FC19
:1006A300F5907F147E0012179890019CE004F0806F
:1006B300DA75900890019C7406F090019CE0FFC3EA
:1006C30094014022EF90151E93FF7401A807088040
:1006D30002C333D8FCF5807F147E00121798900173
:1006E3009CE014F080D490151FE493FF7401A807D5
:1006F300088002C333D8FCF58090019C7404F09009
:10070300019CE0FFC39406501C7401A807088002F3
:10071300C333D8FCF5907F147E0012179890019C88
:10072300E004F080DA900197E004F09001A9E0750D
:10073300F041A4FF900197E0FE2F14FF9001A6E083
:10074300FDA3E0C39DFDEF75F00A8475F00A84AC48
:10075300F075F006EEA42400F582E5F03400F5838D
:10076300ECF0EF75F00A84AEF0900197E0FC75F0C1
:1007730006A42401F582E5F03400F583EEF0ED756F
:10078300F0648475F00A84AEF075F006ECA42402DC
:10079300F582E5F03400F583EEF0ED75F00A84752B
:1007A300F00A84AEF075F006ECA42403F582E5F0BC
:1007B3003400F583EEF0ED75F00A84AEF075F006C3
:1007C300ECA42404F582E5F03400F583EEF075F033
:1007D30006ECA42405F582E5F03400F5837410F0EB
:1007E300EFD39402501DED94045018900197E075D7
:1007F300F006A42405F582E5F03400F5837405F0D2
:10080300020920EFD39404501DED940C501890016D
:1008130097E075F006A42405F582E5F03400F5832E
:100823007407F0020920EFD39408501DED9418507B
:1008330018900197E075F006A42405F582E5F034DD
:1008430000F5837409F0020920EFD3940A501DEDDB
:10085300941E5018900197E075F006A42405F582C4
:10086300E5F03400F583740AF0020920EFD3940A0B
:10087300501DED943C5018900197E075F006A424A8
:1008830005F582E5F03400F583740BF0020920EFDF
:10089300D3940A501CED94785017900197E075F0AB
:1008A30006A42405F582E5F03400F583740CF0808A
:1008B3006CEFD3940A501CED94F05017900197E01D
:1008C30075F006A42405F582E5F03400F583740D74
:1008D300F0804AEFD3940A5020ED94E07480948121
:1008E3005017900197E075F006A42405F582E5F012
:1008F3003400F583740EF08024EFD39414501EED6E
:1009030094C0748094835015900197E075F006A409
:100913002405F582E5F03400F583740FF090019718
:10092300E090019EF0309803020B42900192E0FCAC
:10093300A3E0FDA3E0FEA3E0FFE4FAF9F8EF24014E
:10094300FFEA3EFEE93DFDE83CFC9001921213A252
:10095300E47B02F8900002E0FCA3E0FDA3E0FEA329
:10096300E0FF12174E900192E0F8A3E0F9A3E0FA3A
:10097300A3E0FBC312138C5004C2A08002D2A09048
:100983000196E024A9600724046003020A75E47B4E
:10099300E87A03F9F8900002E0FCA3E0FDA3E0FE8F
:1009A300A3E0FF12174EA804A905AA06AB079001FE
:1009B30092E0FCA3E0FDA3E0FEA3E0FF12174EAC20
:1009C30000AD01AE02AF03EC4D4E4F70199001A87C
:1009D300E004F0E0FF9001A4E02402FEEF8EF08437
:1009E3009001A8E5F0F09001A8E0FF90019EE0756A
:1009F300F006A42400F582E5F03400F583E5822FA8
:100A0300F582E43583F583E0FE640A60219001A852
:100A1300E0FDEE90150E93F590ED90151F93FE7487
:100A230001A806088002C333D8FCF58080167590B0
:100A330008EF90151F93FF7401A807088002C333C2
:100A4300D8FCF580900197E0FF90019EE0B5071474
:100A53009001A8E0FF64016016EF640460030209DB
:100A630028020B3C9001A8E06403600302092802FA
:100A73000B3CE47BE87A03F9F8900002E0FCA3E086
:100A8300FDA3E0FEA3E0FF12174EA804A905AA06E2
:100A9300AB07900192E0FCA3E0FDA3E0FEA3E0FF1F
:100AA30012174EAC00AD01AE02AF03EC4D4E4F70CA
:100AB300199001A8E004F0E0FF9001A4E02402FEF5
:100AC300EF8EF0849001A8E5F0F09001A8E0FF908C
:100AD3000197E075F006A42400F582E5F03400F5F3
:100AE30083E5822FF582E43583F583E0FE640A60B3
:100AF300219001A8E0FDEE90150E93F590ED901571
:100B03001F93FE7401A806088002C333D8FCF58046
:100B13008016759008EF90151F93FF7401A80708BE
:100B23008002C333D8FCF5809001A8E0FF64016024
:100B330008EF6404600302092843908002092890A7
:100B43000196E599F0E0FF64576005EF6453703553
:100B5300EF24AD601824FC600302092890019EE095
:100B630014F0E0C394015055E004F0805090019ECE
:100B7300E004F0900197E0FF90019EE0D39F4003D3
:100B8300E014F08038900196E0B41B0302126DE488
:100B930090019CF090019CE0FFC3940A501FEF2446
:100BA30030FFE433FE900196E0B50709E4B506058E
:100BB300F58002041F90019CE004F080D7C2989056
:100BC3000196E0F5990209289001A27401F002044C
:100BD300B8900197E090019EF09001A2E0B4010665
:100BE30090019EE014F030980302111F900192E0EF
:100BF300FCA3E0FDA3E0FEA3E0FFE4FAF9F8EF2491
:100C030001FFEA3EFEE93DFDE83CFC900192121330
:100C1300A2900002E0FCA3E0FDA3E0FEA3E0FF90AE
:100C23000192E0F8A3E0F9A3E0FAA3E0FBD31213E7
:100C33008C40189001921213AE0000000090000146
:100C4300E004F07006900000E004F0E47B02FAF99F
:100C5300F8900002E0FCA3E0FDA3E0FEA3E0FF1296
:100C6300174E900192E0F8A3E0F9A3E0FAA3E0FBAA
:100C7300C312138C5004C2A08002D2A09001A2E040
:100C8300B401069001967457F0900196E024F87031
:100C930003020D7624D824F64003020F9424EF7048
:100CA30003020E3A24F4600724046003021058E49C
:100CB3007BE87A03F9F8900002E0FCA3E0FDA3E0EF
:100CC300FEA3E0FF12174EA804A905AA06AB0790DE
:100CD3000192E0FCA3E0FDA3E0FEA3E0FF12174EA8
:100CE300AC00AD01AE02AF03EC4D4E4F7019900155
:100CF300A8E004F0E0FF9001A4E02402FEEF8EF0F0
:100D0300849001A8E5F0F09001A8E0FF90019EE037
:100D130075F006A42400F582E5F03400F583E5823E
:100D23002FF582E43583F583E0FE640A60219001A8
:100D3300A8E0FDEE90150E93F590ED90151F93FE30
:100D43007401A806088002C333D8FCF580801675A9
:100D53009008EF90151F93FF7401A807088002C342
:100D630033D8FCF5809001A8E064036003020BE92B
:100D7300021119E47BE87A03F9F8900002E0FCA37E
:100D8300E0FDA3E0FEA3E0FF12174EA804A905AA05
:100D930006AB07900192E0FCA3E0FDA3E0FEA3E015
:100DA300FF12174EAC00AD01AE02AF03EC4D4E4F38
:100DB30070199001A8E004F0E0FF9001A4E0240280
:100DC300FEEF8EF0849001A8E5F0F09001A8E0FF1B
:100DD300900197E075F006A42400F582E5F0340055
:100DE300F583E5822FF582E43583F583E0FE640A1B
:100DF30060219001A8E0FDEE90150E93F590ED9023
:100E0300151F93FE7401A806088002C333D8FCF5AE
:100E1300808016759008EF90151F93FF7401A80743
:100E2300088002C333D8FCF5809001A8E064036016
:100E330003020BE90211199001A5E06401600302AA
:100E43000ED07BE87A03F9F8900002E0FCA3E0FD02
:100E5300A3E0FEA3E0FF12174EA804A905AA06AB60
:100E630007900192E0FCA3E0FDA3E0FEA3E0FF12E4
:100E7300174EAC00AD01AE02AF03EC4D4E4F7017F1
:100E83009001A8E004F0E0FF9001A4E0FEEF8EF0F3
:100E9300849001A8E5F0F09001A8E0FF2498F58282
:100EA300E43401F583E090150E93F590EF90151F50
:100EB30093FF7401A807088002C333D8FCF5809020
:100EC30001A8E064036003020BE9021119E47BE863
:100ED3007A03F9F8900002E0FCA3E0FDA3E0FEA38F
:100EE300E0FF12174EA804A905AA06AB07900192CA
:100EF300E0FCA3E0FDA3E0FEA3E0FF12174EAC006D
:100F0300AD01AE02AF03EC4D4E4F70199001A8E056
:100F130004F0E0FF9001A4E02402FEEF8EF0849041
:100F230001A8E5F0F09001A8E0FF90019EE075F0C4
:100F330006A42400F582E5F03400F583E5822FF55D
:100F430082E43583F583E0FE640A60219001A8E022
:100F5300FDEE90150E93F590ED90151F93FE740121
:100F6300A806088002C333D8FCF580801675900864
:100F7300EF90151F93FF7401A807088002C333D8AD
:100F8300FCF5809001A8E064036003020BE9021101
:100F930019E47BE87A03F9F8900002E0FCA3E0FD92
:100FA300A3E0FEA3E0FF12174EA804A905AA06AB0F
:100FB30007900192E0FCA3E0FDA3E0FEA3E0FF1293
:100FC300174EAC00AD01AE02AF03EC4D4E4F70199E
:100FD3009001A8E004F0E0FF9001A4E02402FEEFFA
:100FE3008EF0849001A8E5F0F09001A8E0FF900155
:100FF30097E075F006A42400F582E5F03400F5834C
:10100300E5822FF582E43583F583E0FE640A6021EF
:101013009001A8E0FDEE90150E93F590ED90151F4D
:1010230093FE7401A806088002C333D8FCF58080C0
:1010330016759008EF90151F93FF7401A807088099
:1010430002C333D8FCF5809001A8E0640360030277
:101053000BE9021119E47BE87A03F9F8900002E046
:10106300FCA3E0FDA3E0FEA3E0FF12174EA804A932
:1010730005AA06AB07900192E0FCA3E0FDA3E0FE06
:10108300A3E0FF12174EAC00AD01AE02AF03EC4D6F
:101093004E4F70199001A8E004F0E0FF9001A4E026
:1010A3002402FEEF8EF0849001A8E5F0F09001A8F1
:1010B300E0FF90019EE075F006A42400F582E5F0C0
:1010C3003400F583E5822FF582E43583F583E0FE72
:1010D300640A60219001A8E0FDEE90150E93F5904F
:1010E300ED90151F93FE7401A806088002C333D840
:1010F300FCF5808016759008EF90151F93FF74011F
:10110300A807088002C333D8FCF5809001A8E064E7
:10111300036003020BE9439080020BE9E49001A210
:10112300F0900196E599F09001AAE060030211B4F2
:10113300900192A3A3E0FEA3E0FF12173FE4900106
:10114300A0F09001A4E0FF9001A0E0C39F506212C1
:1011530017017C007D0A1213569001A1EDF0E49073
:10116300019CF09001A0E0FF90019CE0FEC39F5022
:101173001D74982EF582E43401F583E0FE9001A1FD
:10118300E0FDEE6D600890019CE004F080D59001D5
:101193009CE0B507BA9001A1E0FF9001A0E024987C
:1011A300F582E43401F583EFF09001A0E004F080D0
:1011B300919001AA7401F09001A3E004F0E0B4015E
:1011C3000B900000A3E09001A6F0A3F09001A3749C
:1011D30001F0900196E0FF64576005EF6453703AA5
:1011E300EF24AD601824FC6003020BE990019EE03C
:1011F30014F0E0C39401501BE004F0801690019EAC
:10120300E004F0900197E0FF90019EE0D39F40033C
:10121300E014F0E49001A5F0806D900196E0FF6486
:1012230008703FA3E0FE90019EF090019DE0FDD386
:101233009401402275F006EEA424FEF582E5F03415
:10124300FFF583E5822DF582E43583F583740AF097
:1012530090019DE014F0E49001A5F0C2988F9902EB
:101263000BE9900196E0FFB41B08F59943EF1002D8
:10127300051FEFB44B1C9001A5E020E0057401F0BD
:101283008005E49001A5F0C298900196E0F59902DB
:101293000BE9E490019CF090019CE0FFC3940A40A9
:1012A30003021348EF2430FFE433FE900196E06F0E
:1012B3007001EE600302133F9001A0F090019DE0E6
:1012C300FF14FE9001A0E0FDC39E503B900197E008
:1012D30075F006A42400F582E5F03400F583E58279
:1012E3002DF582E43583F583E02430FDE433FC906F
:1012F3000196E0B50509E4B50405C298020BE9902F
:1013030001A0E004F080B5900196E0FE24D0FDA397
:10131300E075F006A424FFF582E5F034FFF583E5DC
:10132300822FF582E43583F583EDF090019F7401FC
:10133300F0E49001A5F0C2988E99800990019CE099
:1013430004F002129A90019FE0600302051FC29805
:03135300020BE9A1
:10168100020003E493A3F8E493A34003F68001F27C
:1016910008DFF48029E493A3F85407240CC8C3336A
:1016A100C4540F4420C8834004F456800146F6DF39
:1016B100E4800B01020408102040809017CCE47EE6
:1016C100019360BCA3FF543F30E509541FFEE4932E
:1016D100A360010ECF54C025E060A840B8E493A3F5
:1016E100FAE493A3F8E493A3C8C582C8CAC583CA20
:1016F100F0A3C8C582C8CAC583CADFE9DEE780BED8
:0117D8000010
:10135600C2D5EC30E709B2D5E4C39DFDE49CFCEEB2
:1013660030E715B2D5E4C39FFFE49EFE1213DFC338
:10137600E49DFDE49CFC80031213DF30D507C3E433
:061386009FFFE49EFE2221
:10174E00C2D5E830E70FB2D5E4C39BFBE49AFAE4C6
:10175E0099F9E498F8EC30E717B2D5121784121401
:10176E0070E4C39BFBE49AFAE499F9E498F88003D9
:10177E0012147030D50DE4C39FFFE49EFEE49DFD70
:04178E00E49CFC22B9
:10138C00EB9FF5F0EA9E42F0E99D42F0EC6480C8D8
:06139C0064809845F02278
:0C13A200ECF0A3EDF0A3EEF0A3EFF022BE
:1013AE00A8828583F0D083D0821213C51213C51282
:1013BE0013C51213C5E473E493A3C583C5F0C583A7
:1013CE00C8C582C8F0A3C583C5F0C583C8C582C889
:0113DE0022EC
:101701009001AB1215027810EC4D4E4F70047CA580
:101711007DA5C3EC13FCED13FDEE13FEEF13FF509B
:1017210010EC64CCFCED644CFDEE644EFEEF64CE37
:10173100FFD8DF9001AB1213A2EE547FFE2290017D
:0D174100ABEEF0EFA3F0A374A5F0A3F0222F
:1013DF00BC000BBE0029EF8DF084FFADF022E4CCF2
:1013EF00F875F008EF2FFFEE33FEEC33FCEE9DECBB
:1013FF00984005FCEE9DFE0FD5F0E9E4CEFD22ED01
:10140F00F8F5F0EE8420D21CFEADF075F008EF2F4A
:10141F00FFED33FD4007985006D5F0F222C398FD3B
:05142F000FD5F0EA22D8
:1014340075F008758200EF2FFFEE33FECD33CDCC6F
:1014440033CCC58233C5829BED9AEC99E5829840F2
:101454000CF582EE9BFEED9AFDEC99FC0FD5F0D6CF
:10146400E4CEFBE4CDFAE4CCF9A88222B800C1B9F9
:101474000059BA002DEC8BF084CFCECDFCE5F0CB37
:10148400F97818EF2FFFEE33FEED33FDEC33FCEB70
:1014940033FB10D703994004EB99FB0FD8E5E4F92B
:1014A400FA227818EF2FFFEE33FEED33FDEC33FC18
:1014B400C933C910D7059BE99A4007EC9BFCE99A0C
:1014C400F90FD8E0E4C9FAE4CCFB2275F010EF2F51
:1014D400FFEE33FEED33FDCC33CCC833C810D70751
:1014E4009BEC9AE899400AED9BFDEC9AFCE899F88C
:0E14F4000FD5F0DAE4CDFBE4CCFAE4C8F9221F
:0C150200E0FCA3E0FDA3E0FEA3E0FF225C
:00000001FF
